{
  "transactions": [
    {
      "hash": "0x3edd9ee5981d67f7075c74e6c30194388eb16009345c7e7dd45521985807e85b",
      "transactionType": "CALL",
      "contractName": null,
      "contractAddress": "0x91677dd787cd9056c5805cbb74e271fd83d88e61",
      "function": "registerApp(address,bytes,bytes32,uint256)",
      "arguments": [
        "0x5E5b22ea2aE899D2E4fD5F27155C59Bb7d05e50C",
        "0x1700cd6fe62fd66e74582c13621d5de0003b0842ce362bc5bf70872be09bb3cf3f42be14d0f9dbd5f1c44516df54cd2cf05318569750ef86155bf302687cc8a51b",
        "0x0000000000000000000000000000000000000000000000000000000000000001",
        "1731859860"
      ],
      "transaction": {
        "from": "0x804de84daaac039ae42cc5c84b5d77532b3362ad",
        "to": "0x91677dd787cd9056c5805cbb74e271fd83d88e61",
        "gas": "0x1d3b4",
        "value": "0x0",
        "input": "0xcda332b80000000000000000000000005e5b22ea2ae899d2e4fd5f27155c59bb7d05e50c0000000000000000000000000000000000000000000000000000000000000080000000000000000000000000000000000000000000000000000000000000000100000000000000000000000000000000000000000000000000000000673a159400000000000000000000000000000000000000000000000000000000000000411700cd6fe62fd66e74582c13621d5de0003b0842ce362bc5bf70872be09bb3cf3f42be14d0f9dbd5f1c44516df54cd2cf05318569750ef86155bf302687cc8a51b00000000000000000000000000000000000000000000000000000000000000",
        "nonce": "0xb",
        "chainId": "0x4268"
      },
      "additionalContracts": [],
      "isFixedGasLimit": false
    }
  ],
  "receipts": [
    {
      "status": "0x1",
      "cumulativeGasUsed": "0x879ffc",
      "logs": [
        {
          "address": "0x91677dd787cd9056c5805cbb74e271fd83d88e61",
          "topics": [
            "0x26ac4b237a85b5ab5dbfb419348c9ce9bde6224e94f1a95882cfa1fdf9c3ede8",
            "0x0000000000000000000000005e5b22ea2ae899d2e4fd5f27155c59bb7d05e50c"
          ],
          "data": "0x0000000000000000000000000000000000000000000000000000000000000001",
          "blockHash": "0x99e289a1994a0acae7608e3b5c2f87906cb37d12b19b70aac02a36d60ec55351",
          "blockNumber": "0x2a0172",
          "transactionHash": "0x3edd9ee5981d67f7075c74e6c30194388eb16009345c7e7dd45521985807e85b",
          "transactionIndex": "0x16",
          "logIndex": "0x31",
          "removed": false
        }
      ],
      "logsBloom": "0x00000000000000000000000000000000000000000000000000000000000000000000004000000000000000000000000000000000000000000100000000000000000000000000000000000000000000000000000000000000040000000000000000000000000000000000000000000000000000000000000000000000080000000000000000000000000000000001000000000000000000000000000000000000000000000000000000000000000000000000002000000000000000000000000000000000000000000000004000000010000000000000000000000000000000000000000000000000000000000200000000000000000000000000000000000000",
      "type": "0x2",
      "transactionHash": "0x3edd9ee5981d67f7075c74e6c30194388eb16009345c7e7dd45521985807e85b",
      "transactionIndex": "0x16",
      "blockHash": "0x99e289a1994a0acae7608e3b5c2f87906cb37d12b19b70aac02a36d60ec55351",
      "blockNumber": "0x2a0172",
      "gasUsed": "0x1529d",
      "effectiveGasPrice": "0x1b1b944",
      "from": "0x804de84daaac039ae42cc5c84b5d77532b3362ad",
      "to": "0x91677dd787cd9056c5805cbb74e271fd83d88e61",
      "contractAddress": null
    }
  ],
  "libraries": [],
  "pending": [],
  "returns": {},
  "timestamp": 1731773499,
  "chain": 17000,
  "commit": "ba1ec57"
}