{
  "transactions": [
    {
      "hash": "0xd2f75f7a8095ea5bfebeb841f965bc99f281bb374d042c1647fa306645ee27b2",
      "transactionType": "CALL",
      "contractName": null,
      "contractAddress": "0x91677dd787cd9056c5805cbb74e271fd83d88e61",
      "function": "registerApp(address,bytes,bytes32,uint256)",
      "arguments": [
        "0x654af04F182ef1BA7Fc7eb3B6Af7c3472Cce5dfE",
        "0x3fd61977766a5edfe67adedef37b20eb37bdb773fed00bd328e8463441a1557613d7d50d63359d96f9a182f230a78faeac6a8a835725dd76827c0b1f3d3b75f71b",
        "0x0000000000000000000000000000000000000000000000000000000000000001",
        "1731854964"
      ],
      "transaction": {
        "from": "0x804de84daaac039ae42cc5c84b5d77532b3362ad",
        "to": "0x91677dd787cd9056c5805cbb74e271fd83d88e61",
        "gas": "0x1f440",
        "value": "0x0",
        "input": "0xcda332b8000000000000000000000000654af04f182ef1ba7fc7eb3b6af7c3472cce5dfe0000000000000000000000000000000000000000000000000000000000000080000000000000000000000000000000000000000000000000000000000000000100000000000000000000000000000000000000000000000000000000673a027400000000000000000000000000000000000000000000000000000000000000413fd61977766a5edfe67adedef37b20eb37bdb773fed00bd328e8463441a1557613d7d50d63359d96f9a182f230a78faeac6a8a835725dd76827c0b1f3d3b75f71b00000000000000000000000000000000000000000000000000000000000000",
        "nonce": "0x6",
        "chainId": "0x4268"
      },
      "additionalContracts": [],
      "isFixedGasLimit": false
    }
  ],
  "receipts": [
    {
      "status": "0x1",
      "cumulativeGasUsed": "0x13703b",
      "logs": [
        {
          "address": "0x91677dd787cd9056c5805cbb74e271fd83d88e61",
          "topics": [
            "0x26ac4b237a85b5ab5dbfb419348c9ce9bde6224e94f1a95882cfa1fdf9c3ede8",
            "0x000000000000000000000000654af04f182ef1ba7fc7eb3b6af7c3472cce5dfe"
          ],
          "data": "0x0000000000000000000000000000000000000000000000000000000000000001",
          "blockHash": "0x41c1047f3b13ea1217419c1a4b21c53d2f6f83608e5cf873c6dda1c8b812e5d8",
          "blockNumber": "0x29fffc",
          "transactionHash": "0xd2f75f7a8095ea5bfebeb841f965bc99f281bb374d042c1647fa306645ee27b2",
          "transactionIndex": "0x6",
          "logIndex": "0x2c",
          "removed": false
        }
      ],
      "logsBloom": "0x00000000001000000000000000000000000000000000000000000000000000000000000000000000000000000000000000000000000000000100000000000000000000000000000000000000000000000000000000000000000000000000000000000000000000000000000000000000000000000000000000000000080000000000000000000000000000000000000000000000000000000000000000000000000000000000000010000000000000000000002000000000000000000000000000000000000000000000004000000010000000000000000000000000000000000000000000000000020000000200000000000000000000000000000000000000",
      "type": "0x2",
      "transactionHash": "0xd2f75f7a8095ea5bfebeb841f965bc99f281bb374d042c1647fa306645ee27b2",
      "transactionIndex": "0x6",
      "blockHash": "0x41c1047f3b13ea1217419c1a4b21c53d2f6f83608e5cf873c6dda1c8b812e5d8",
      "blockNumber": "0x29fffc",
      "gasUsed": "0x16a2d",
      "effectiveGasPrice": "0x1ccf784",
      "from": "0x804de84daaac039ae42cc5c84b5d77532b3362ad",
      "to": "0x91677dd787cd9056c5805cbb74e271fd83d88e61",
      "contractAddress": null
    }
  ],
  "libraries": [],
  "pending": [],
  "returns": {},
  "timestamp": 1731768641,
  "chain": 17000,
  "commit": "f8edd7a"
}